:100000000C94BD130C94E5130C94E5130C94E513B8
:100010000C94E5130C94E5130C94E5130C94E51380
:100020000C94E5130C94E5130C94DB1D0C944D1EFD
:100030000C94E5130C94E5130C94E5130C94E51360
:100040000C94E5130C94B7140C94E5130C94E5137D
:100050000C94E5130C94E5130C94E5130C948A248A
:100060000C94E5130C94E5130C94E5130C94E51330
:100070000C94E5130C94E5130C94E5130C94E51320
:100080000C94E2150C94E5130C94E5130C94E51311
:100090000C94E5130C94E5130C94E5130C94E51300
:1000A0000C94E5130C94E5130C94E5133027E92D1B
:1000B000CB274C28ED288F29DE2ACE2B572D0A0A74
:1000C00000C0F0F0700A0D1D2410030301000000B1
:1000D00000000000F0F89C8E8783878E9CF8F0006B
:1000E00000FEFF0303030303070EFCF80000FEFFFE
:1000F0000303030303070EFCF80000FFFF000000EA
:1001000000000000FFFF0000FEFF8383838383C79E
:10011000EE7C380000F8FC0E07030303070EFCF822
:1001200000003F7FE0C08080C0E07F3FFFFF010113
:100130000101010101FFFF0000FFFF0C0C0C0C1C72
:100140003E77E3C100007FFFC0C0C0C0C0E0703F89
:100150001F00001F3F70E0C0C0C0E0703F1F0000E4
:100160007FFFC1C1C1C1C1E3773E1C00001F3F70CA
:10017000E0C0C0C0E0703F1F000000000001FFFFB2
:1001800001000000D5F08D14A1C881CFD9F1AF20B6
:1001900000070605040100080A0B0C0D09F8F8D841
:1001A000F8F8F8D8C840F8F800F8F81818181898AF
:1001B000D800F8F81818181898D800F8F8D8D8D82F
:1001C000D8D8D800F8F8D8D8D8D8D8D8001818185F
:1001D000F8F81818180000000000F8F81818181897
:1001E000181800F8F8C0C0C0C0FCFE00F8F8000005
:1001F0000000F8F800FCF870E0C080F8F800F8F8AB
:100200001818181898D800F8F800000000F8F8003E
:10021000F8F8D8D8D8D8D8D87F3F1C0E07030100EB
:10022000000707000707060606061F0F0007070658
:100230000606061F0F000707060606060606000646
:100240000606060606070700000000070700000074
:1002500000000000000707060606060606001F0F3E
:10026000000000000707000707060606060707004C
:10027000070700000103070F000707060606061F11
:100280000F0007070606060607070006060606060D
:10029000060707000000000000000000000000004A
:1002A0000000000000008040104014208A208A20B6
:1002B0008A200A000A800440040090480050002868
:1002C000802A8012480000000000000000000000AA
:1002D00080A040984412A902A8451025904590227C
:1002E000882254005402500A2049045104500550F9
:1002F000055002280214010000002080C03098C878
:10030000E6E9F5F2F8F2F4F1EAC4D2882512A882FF
:100310002892C8622108C5D0A10451045104510497
:1003200051045104510451025458EC5E23F9FEFF6C
:10033000FFFFFFFFFFFFFFFF7FFFFFFFFFFFBF7E0E
:10034000ECD860DF3DF078BCDF4F63A85431521920
:10035000348994696CC5C415020502FBFCFFFEFBE1
:10036000FFFFFFFFFFFFFFFFFFFFFFFEFDFD6F0130
:10037000874F0D1B17E6DCB9B4FCFA048912244937
:100380001285B8F8B0D8D8FFEF81000000FFFFFF5A
:10039000FFFFFFFFFFFFFFFFFFFFFFFFBF7FFFFF2D
:1003A000EA966C78A9625038BD3FCBFB73AEDEDEB7
:1003B000DFEFFFFFEFDBD7BDB5EF6D0D000000FFF6
:1003C000FFFFFFFFFFFFFFFFFFFFDF7FFFFFFFFFDD
:1003D000FEFDFBFFF7EFEEFFEFFFFFFFFFFEFFFF6E
:1003E000FFFFFFFFFFFFFFF75703010000000000C2
:1003F00000FFFFFFFFFFFFFFFFFFFFFFFFFFFFFD0E
:10040000FFFBF7FFF7FFF7FFF7FFFFFFFFFFFFFF20
:10041000FFFFFFFFFF7F3F1F0700000000000000FD
:10042000000000FF8080800000FF00000101FF014C
:100430000100000101FF01010000FF80808000FF3A
:1004400089898900000000007E818181420000FFCF
:10045000080808FF007F8080807F0000FF0618608A
:10046000FF00007E818149FA00007F8080807F004C
:100470000066898989721D1D0000000000000000CF
:100480000000000000F8F0F0C000F8E0800000007C
:1004900000000000000000000000000080C0C0C09C
:1004A000E0E0E0E79FFFFFF0FDBD9CFCF8E0C0004E
:1004B0000000000000007068FEFFFFFFFFFFFFFF6D
:1004C0007FFFFFFDFB7B37070F07050303000000DD
:1004D000000000000003070F0C0D090000060F0FBD
:1004E0000C08000C000000000000000000000000EC
:1004F00000000000000000003EFCFCF0C03E786000
:10050000000000000000000000000000000000C02B
:10051000E0E0E0F0F8F8F9E7FF7FFCFFEFE7FFFE2F
:1005200078F0C000000000003834FFFFFFFFFF7FBD
:100530007F1F1F1F1F1F5FFEFEDD0903010100005B
:100540000000000000020707070400000000000090
:10055000000000000103030302000000000000008F
:100560000000000000000000000000000000001F6C
:10057000FEFEF8E01FBCB08080000000000000001C
:100580000000C0C0E0F0F0F0F8F8F8F8F8FCF3FF75
:10059000BF7E7FF7F3FFFFBC7860000080E7ED7F50
:1005A0003F3F3F1F1F0F0F0F0F0F0F0F0F0F1F1F8B
:1005B0003E3461C0C0C040030303030100000000DB
:1005C000000000000000000000000000000000002B
:1005D0000101010000000000000000000000000018
:1005E000000000E0C0C00000E0800000000000004B
:1005F00000000000000000000000C0C0C0E0E0E01B
:10060000E39F7FFFFCC3F7F670F0E080000000007E
:10061000C04080B8B4FFFF7F3F7F7FFFFFFFFFFE3A
:100620007FF7EFEFDE1E3F1F170F0C0000000103E6
:1006300003030200000000000000000000000007AB
:100640000F0E0C08020C000000000000000000006B
:100650000000000C3C7CF8F8F0C818B080808000E6
:10066000000000000000000000008080E0F0F0F0DA
:10067000F8FCFCFDF3FFBF7E7FF7F3FFFFBC786063
:1006800000000000001C9AFFFF7F7F7F3F3F0F0F9D
:100690000F0F0F1F7FFFFEC481000000000000004D
:1006A000000001030303020000000000000000003E
:1006B000000000000000000000000000FBDDDCFD89
:1006C000FDBABAECFBDD5674FDF7787A05010E0B26
:1006D00002060B0D0B05050B0A06090908087F2BFE
:1006E000170F0F172B557F5D7F7F7F5D7F00703762
:1006F0007607776773775017710575155157081C82
:100700003E7F3E1C0800E3C78E1C3871E3C790474C
:10071000000B914700D19028000B8100D18000DCB4
:10072000902800DC8000DC902800DC8000DC902831
:1007300000DC8000E0902700D88000DC902700DCFF
:100740008000DC902700DC8000DC91469027000BC5
:10075000924600D193478081000B91478200D1904F
:100760002C83000B8100D18000DC902C00DC800009
:10077000DC902C00DC8000DC902C00DC8000DC9025
:100780002A00E08000D8902A00DC8000DC902A005B
:10079000DC8000DC902A00DC914780000B9247004F
:1007A000D1902881000B8200D18000DC902800DCF1
:1007B0008000DC902800DC8000DC902800DC8000D9
:1007C000DC902700DC8000E0902700D88000DC90DF
:1007D0002700DC8000DC91469027000B924600D178
:1007E00093478081000B91478200D1902C83000BAE
:1007F0008100D18000DC902C00DC8000DC902C009B
:10080000DC8000DC902C00DC8000DC902A00DC80A6
:1008100000DC902A00E08000D8902A00DC8000DC18
:10082000902A00DC914780000B924700D1902881EC
:10083000000B8200D1914780000B924700D1934476
:10084000902881000B91448200D18083000B8100AD
:10085000D1902800DC8000DC902800DC8000DC9057
:100860002700DC8000DC91429027000B924200D1EF
:10087000934E8081000B914E8200D5902783000714
:10088000810063914E000B924E006380006E8100E8
:100890000B820063914B9027000B924B00D1934742
:1008A0008081000B91478200D1902C83000B810046
:1008B000D1914780000B924700D19344902C810046
:1008C0000B91448200D18083000B8100D1902C00D9
:1008D000DC8000DC902C00DC8000DC902A00DC80D6
:1008E00000DC9142902A000B924200D1934C80810F
:1008F000000B914C8200D1902A83000B8100639100
:100900004C000B924C006680006A81000B820063F1
:10091000914B902A000B924B00D193478081000BA2
:1009200091478200D1902883000B8100D1914780AC
:10093000000B924700D19344902881000B91448290
:1009400000D18083000B8100D1902800DC8000DC86
:10095000902800DC8000DC902700DC8000DC9142E5
:100960009027000B924200D1934E8081000B914E54
:100970008200D1902783000B810063914E000B927F
:100980004E006380006E81000B820066914B9027C1
:100990000007924B00D193478081000B9147820062
:1009A000D1902C83000B8100D1914780000B92479E
:1009B00000D19344902C81000B91448200D180831C
:1009C000000B8100D1902C00DC8000DC902C00DC3E
:1009D0008000DC902A00DC8000DC9142902A000B31
:1009E000924200D1934C8081000B914C8200D190B7
:1009F0002A83000B810063914C000B924C006380B2
:100A0000006E81000B820063914B902A000B924B89
:100A100000D593478081000791478200D183000B66
:100A20008100D19147000B924700D1934481000B84
:100A300091448200D183000B8100D19147000B9239
:100A40004700D181000B8200D19147000B924700F3
:100A5000D181000B8200D19146000B924600D181DA
:100A6000000B8200D19142000B924200D1934E8143
:100A7000000B914E8200D183000B810063914E00E8
:100A80000B924E00D181000B820063914B000B92C0
:100A90004B00D1934781000B91478200D58300071B
:100AA0008100D19147000B924700D1934481000B04
:100AB00091448200D183000B8100D19147000B92B9
:100AC0004700D181000B8200D19147000B92470073
:100AD000D181000B8200D19146000B924600D1815A
:100AE000000B8200D19142000B924200D1934C81C5
:100AF000000B914C8200D183000B810063914C006C
:100B00000B924C00D181000B820063914B000B9241
:100B10004B00D1934781000B91478200D183000B9A
:100B20008100D591470007924700D1934481000B83
:100B300091448200D183000B8100D19147000B9238
:100B40004700D181000B8200D19147000B924700F2
:100B5000D181000B8200D19146000B924600D181D9
:100B6000000B8200D19142000B924200D1934E8142
:100B7000000B914E8200D183000B810063914E00E7
:100B80000B924E00D181000B820063914B000B92BF
:100B90004B00D1934781000B91478200D183000B1A
:100BA0008100D19147000B924700D5934481000703
:100BB00091448200D183000B8100D19147000B92B8
:100BC0004700D181000B8200D19147000B92470072
:100BD000D181000B8200D19146000B924600D18159
:100BE000000B8200D19142000B924200D1934C81C4
:100BF000000B914C8200D183000B810063914C006B
:100C00000B924C00D181000B820063914B000B9240
:100C10004B00D1934781000B91478200D183000B99
:100C20008100D19147000B924700D1934481000B82
:100C300091448200D58300078100D19147000B9237
:100C40004700D181000B8200D19147000B9247E011
:100C50009036911E92249036912A933D9331000E46
:100C6000941E004F8202129224005E82021292248D
:100C7000808183005E82006084005E9423001B906C
:100C80002F913B93369242011B8400139425000858
:100C900080818283000195249031913D9238934464
:100CA000005E85009F84003494200004808182834C
:100CB0000001902C91389233933F013680818283DA
:100CC00000019524902D913992349340001500062F
:100CD0008400428502129524005E850212952480CC
:100CE000818283005E8500C894270011903F913374
:100CF0009246933A01149528002280818283000154
:100D00009024914092349347943B005E80009C85F0
:100D1000001895210023818283840001912D92394E
:100D200093349440012E85000881828384000190D1
:100D30002491369136922A933D9331000E951E00F0
:100D40004F8002129024005E8002129024818283E0
:100D5000002285003C8000B795230022912F923B12
:100D60009336944201138500159525000E818283E8
:100D700084000190249131923D93389444005E8028
:100D800000908500359520001181828384000191B7
:100D90002C92389333943F013681828384000190F2
:100DA000219124922D932A9439000885005681833D
:100DB00000DA912A005E8100DA9124932A005E8194
:100DC0008300DA912A005E8100DA912A93248284DA
:100DD000001380004A818300C39027001691289257
:100DE0003F94339346953A005E81003D9128005E22
:100DF00081002391280010800008828384850001EF
:100E0000924093349447953B009C9028005E80006C
:100E1000118100169121001382838485000190289E
:100E2000922D933994349540005E80003D902800C7
:100E30005E80002081001B828384850001902491C4
:100E40003192369236932A943D9431E00E0D008013
:100E5000C0E0E1F7EEBCFA68786000000B0F07070E
:100E6000030101030705000000000080C0C0C0E1CD
:100E7000FFFCFEDAF0600000021F170707030307FC
:100E80000F08000000000040C0E0E0E0E0E2EEF803
:100E9000FFB9F0C000000F0B0303030303030705B2
:100EA00001000010E0E0E0E0E0E2FEF8FEB2E0C0A9
:100EB000000603030303030303030F09010000807B
:100EC000C0E0E1F7EEBCFA68786000000B0F07079E
:100ED000030101030705000000008A5480000000A0
:100EE0000051BA54000000000000000000000000A3
:100EF0000000008855FE5000000055BB5500000062
:100F00000000000000000000000000000015AF55C8
:100F10000050A0558B45800000000000000000003C
:100F2000000000000000D5EAD5EA55E0558855A23A
:100F3000D5B0E080000000000000000000008055F7
:100F4000FFDDFFFFFFFDF875FFDDFFFFFC00000088
:100F500000000000000000FEFFFFDDFFFFFFDDFFDF
:100F6000FFFFDDFFFFFFDDF8D48850A04000000048
:100F7000FFFFFFDDFFFFFFDDFFFFFFDDFFFFFFDD09
:100F8000FFD7FFDDFE7DFEFC381F1F1F1D1F1F1F2B
:100F90001D1F1F1F1D1F1F1F1D1F1F1F15030103C7
:100FA0000100C0F0F8FC7E1E0E060606060C7CFE54
:100FB000DEC2C6FEFEFEC0C0C0C0C2DEFEFEFE0037
:100FC00002C6FEFE3E0000000082DEFEFE0206FEBD
:100FD000FEFEFEFCF8E08002DEFE7E00C0F0F8FCC3
:100FE000FE3E1E8E8E8E8E9CBC9E8E8082C6FEFE27
:100FF0003E0000000082DEFEFE000070FCFEFEEF00
:10100000C7C783030303030204070F1F1F3C78783D
:10101000707070787838381C0E7E3F07010101032C
:10102000E3FF7F1F0F0100000F1F3F3E3C3C1C1ED3
:101030001F0F0703007E3F0707010F3F7FFFFE7F63
:101040000F0000070F1F1F3C787870707179793B93
:101050003B1F0F010F1F3F3E3C3C1C1E1F1F3763F1
:101060006060E0E0F1F17B7F3F1F060000000000C0
:101070000000000000000000000000000000000070
:10108000000000000000000301000000000000005C
:101090000000000000000000000000000000000050
:1010A000000000000301000000000000000000003C
:1010B0000000000000000000000000000000000030
:1010C0000000000000000000000000000000000020
:1010D000000000000000000000010103C7FF7F5F67
:1010E000C7C7EFFEBEBC300187EFFFFF01E0F8FC91
:1010F000FE7F1F0F4747C7C7CEDECFC7C0C0040C57
:101100001E5E7F3739381E1E0F0F07030180F8FF60
:101110003F07030003070F0F1E3C3C3838383C3CA8
:101120001D1D0F070000000000000000000000006F
:1011300000000000030100000000000000000000AB
:10114000000000000000000000000000903A0015C0
:10115000913A808101F80048904E913B01B08000A7
:1011600048810048903A914D923A011F933A80830A
:10117000012100D78200D8903A0090933A808301F1
:101180001F903A800120903A80009081011F903A90
:101190008000909152903A800090903A8000909018
:1011A0003A80008F903A800090903A800090903A78
:1011B000800090903A8000D70048903A00D8808113
:1011C0000048903A008F933A80830090914E01211D
:1011D0000090903A81008F914D00D8800048903A5D
:1011E0000090933A8083008F903A8000D800489016
:1011F0003A0090933A8083008F903A8000D800485C
:10120000903A0090933A808300D70048903A81004A
:1012100090933A80830090903A800090914B008F99
:10122000903A800090903A8000D80048903AE0FFD1
:10123000FFFFFF0F0FFFFFFEFC000000FFFFFFFF9F
:10124000000000FCFEFFFF0F0FFFFFFEFC00000090
:1012500000000000FCFEFFFF0F0FFFFFFEFC000080
:10126000FFFFFFFF0000FFFFFFFF000000FFFFFF89
:10127000FF0000FFFFFFFF0000FFFFFFFFF0000087
:10128000FFFFFFFF000000FCFEFFFF0F0FFFFFFE50
:10129000FC000000FFFFFFFF0000FFFFFFFF00005A
:1012A000FCFEFFFF0F0FFFFFFEFCFFFFFFFFF0F054
:1012B000FFFF1F0F000000FFFFFFFF000000FFFF08
:1012C000FFFF00000F0F0F0F00000000000000FFE5
:1012D000FFFFFF0000010101010000FFFFFFFFF021
:1012E000F0FFFFFFFF000000FFFFFFFF0000FFFF18
:1012F000FFFF0000FFFFFFFFFFFFF0FFFFFFFF000A
:101300000000FFFFFFFF00000F0F0F0F000000FFA6
:10131000FFFFFF0000FFFFFFFF00001F7FFFFFF840
:10132000F0E3C30303FFFFFFFF0101FFFFFFFE0028
:101330000000FFFFFFFF000000FFFFFFFF001EFE99
:10134000FEFEFE00000000000000FFFFFFFF0000A7
:10135000C0C0C0C00000FFFFFFFF0101FFFFFFFF93
:10136000000000FFFFFFFF0000FFFFFFFF0000FF86
:10137000FFFFFF011FFFFFFFFFFF000000FFFFFF58
:10138000FF001EFEFEFEFE000000FFFFFFFF00004C
:10139000FFFFFFFF0000F0F0F0F10307FFFFFFFE8B
:1013A0007F7F7F7F78787F7F3F1F0000007F7F7F78
:1013B0007F0000001F3F7F7F7C7C3F7F7F7F00009E
:1013C00000000000001F3F7F7F78787F7F3F1F0075
:1013D000007F7F7F7F00007F7F7F7F0000000F3FC7
:1013E0007F7F78787F7F3F0F00007F7F7F7F0000C7
:1013F000017F7F7F7F0000001F3F7F7F7C7C3F7FDE
:101400007F7F0000000F3F7F7F78787F7F3F0F0056
:10141000001F3F7F7F78787F7F3F0F000000000034
:1014200000000000000000000000000000000000BC
:1014300000000000000000000000000000000000AC
:101440000000000000000000000400510AB4400B3E
:101450007FED5BFFFF440000000000000000000083
:1014600002946A00BBFFADFB7F07C03E0000000096
:10147000000000000000000000000000000000006C
:10148000000000000000000000000000000000005C
:10149000000000000000000000000000000000004C
:1014A000000000000000000000000000000000003C
:1014B000000000000000000000000000000000002C
:1014C0000000000000000000000000000008032CE5
:1014D000A1479D3FAA44000000000000000000005A
:1014E0000000112A40974DA7502C03000000000077
:1014F00000000000000000000000000000000000EC
:1015000000000000000000000000000000000000DB
:1015100000000000000000000000000000000000CB
:1015200000000000000000000000000000000000BB
:1015300000000000000000000000000000000000AB
:10154000000000000000000000000000000000009B
:101550000AD528A54AB40080200010100C32485447
:101560002996A05801A025A040000000000000001E
:10157000000000000000000000000000000000006B
:10158000000000000000000000000000000000005B
:10159000000000000000000000000000000000004B
:1015A000000000000000000000000000000000003B
:1015B000000000000000000000000000000000002B
:1015C000000000000000000000000000000040B02B
:1015D000208B54228954AB54000074748B522855CC
:1015E0008A542249AA55228855A8248B522C90400F
:1015F00000000000000000000000000000000000EB
:1016000000000000000000000000000000000000DA
:1016100000000000000000000000000000000000CA
:1016200000000000000000000000000000000000BA
:1016300000000000000000000000000000000000AA
:10164000000000000000000000000000008857A813
:10165000258A552248956289552295954A019169B6
:101660001225829508758258A55209D42906C11001
:101670000EB00000000000000000000000000000AC
:10168000000000000000000000000000000000005A
:10169000000000000000000000000000000000004A
:1016A000000000000000000000000000000000003A
:1016B000000000000000000000000000000000002A
:1016C00000000000000000000000000000007D029B
:1016D000B588D5CAE5EAE4F2E5F2E5E5F2E0EEDE4A
:1016E000D8B0B37F7F2C006D12658A52A8431EB814
:1016F000989FE7F87C78B0F0C08000000000000000
:1017000000000000000000000000000000000000D9
:1017100000000000000000000000000000000000C9
:1017200000000000000000000000000000000000B9
:1017300000000000000000000000000000000000A9
:101740000000000000000000000000000080C8FB56
:10175000FFFFFFFFFFFFFFFFFFFFFFFFFFFFBF7F59
:10176000DCF7DFEBD737CCEFFFFCF0EB6860F4FF82
:10177000FF7FABD4FFEBFBEFFBFF0000000000009E
:101780000000000000000000000000000000000059
:101790000000000000000000000000000000000049
:1017A0000000000000000000000000000000000039
:1017B0000000000000000000000000000000000029
:1017C0000000000000000000000000000040C71FF3
:1017D0007FFFFFFFFFFFFFFFFFFFFFFFFFFFFFFF99
:1017E000FFFCC00040C0C081C18DBE3F9ECFFEED5A
:1017F000FCFFFFFFFFFFFFFFF7F9C0000000000044
:1018000000000000000000000000000000000000D8
:1018100000000000000000000000000000000000C8
:1018200000000000000000000000000000000000B8
:1018300000000000000000000000000000000000A8
:1018400000000000000000008000A0504C910A2021
:10185000FFFFFFFFFFFFFFFFFFFFFFFFFFFFFFFF98
:10186000FFFFFFEFEEDEDCDDDCFDDEEFFFFFFFFF65
:10187000FFFFFFFFFFFFFFFFFFFFFF000000000073
:101880000000000000000000000000000000000058
:101890000000000000000000000000000000000048
:1018A0000000000000000000000000000000000038
:1018B00000000000000000000000000000008000A8
:1018C00040000088A054A05412A9520CB10AE0FFB5
:1018D000FFFFFFFFFFFFFFFFFFFFFFFFFFFFFFFF18
:1018E000FFFFF7F7EFDFDFDF9FDFDFEFEFF7FFFF50
:1018F000FFFFFFFFFFFFFFFFFFFFEF001020408013
:1019000000000000000000000000000000000000D7
:1019100000000000000000000000000000000000C7
:1019200000000000000000000000000000000000B7
:101930000000000000400000488024A05014A84A85
:10194000A45215AA44A9528C51AA1483F0FEFFFF99
:10195000FFFFFFFFFFFFFFFFFFFFFFFFFFFFFFFF97
:10196000FFFFFFFFFFFFFFFFFFFFFFFFFFFFFFFF87
:10197000FFFFFFFFFFFFFFFFFFFFFFFFF8E0880112
:1019800082142850A04080000000000000000000E9
:101990000000000000000000000000000000000047
:1019A00000000000000000000000000000800010A7
:1019B000C0249029C412AA4511AA55AA4411AA45C7
:1019C0002A140946A11288E6F1F8FEFFFFFFFFFF87
:1019D000FFFFFFFFFFFFFFFFFFFFFFFFFFFFFFFF17
:1019E000FFFFFFFFFFFFFFFFFFFFFFFFFFFFFFFF07
:1019F000FFFFFFFFFFFFFFFFFFFFFFFFFFFFFFFCFA
:101A0000F0C00801420A146B04A85020C000000076
:101A100000000000000000000000000000000000C6
:101A2000000000000000000000408024C812AC51FB
:101A30004A15A451AA15AA44916A150A440388605C
:101A400014C9E2F9FCFEFFFFFFFFFFFFFFFFFFFFEE
:101A5000FFFFFFFFFFFFFFFFFFFFFFFFFFFFFFFF96
:101A6000FFFFFFFFFFFFFFFFFFFFFFFFFFFFFFFF86
:101A7000FFFFFFFFFFFFFFFFFFFFFFFFFFFFFFFF76
:101A8000FFFFFFFCF1C0041081022C514A15AA444B
:101A900030C0000000000000000000000000000056
:101AA00000000000000000A480D2CCD1CAC5D4D16F
:101AB0008A9522548A35088320004411C0F2F8FE2A
:101AC000FFFFFFFFFFFFFFFFFFFFFFFFFFFFFFFF26
:101AD000FFFFFFFFFFFFFFFFFFFFFFFFFFFFFFFF16
:101AE000FFFFFFFFFFFFFFFFFFFFFFFFFFFFFFFF06
:101AF000FFFFFFFFFFFFFFFFFFFFFFFFFFFFFFFFF6
:101B0000FFFFFFFFFFFFFFF8C0042082C5E9EAE402
:101B100061F2E5E8E0C08000000000000000000085
:101B200000000000E0FA0BE1FFFDD4FFFE89FEFD9E
:101B3000FDFFFBF6E4800A000460FC7F7FFFFFFFEF
:101B4000FFFFFFFFFFFFFFFFFFFFFFFFFFFFFFFFA5
:101B5000FFFFFFFFFFFFFFFFFFFFFFFFFFFFFFFF95
:101B6000FFFFFFFFFFFFFFFFFFFFFFFFFFFFFFFF85
:101B7000FFFFFFFFFFFFFFFFFFFFFFFFFFFFFFFF75
:101B8000FF9F6FF7FFF7F7EFF7FAF9FDFEFFFEFF94
:101B9000FFF4FFFFFCFCFFFBF8E00000000000008A
:101BA0000000002AFFFF55FFFFFFFFFFFFFEFFFFC2
:101BB000FFFFFFFFFFBF5FDF5FFFDFDFE6F9FFFF34
:101BC000FFFFFFFFFFFFFFFFFFFFFFFFFFFFFFFF25
:101BD000FFFFFFFFFFFFFFFFFFFFFFFFFFFFFFFF15
:101BE000FFFFFFFFFFFFFFFFFFFFFFFFFFFFFFFF05
:101BF000FFFFFFFFFFFFFFFFFFFFFFFFFFFFFFFFF5
:101C0000FFFFFEFDFBFFFBFFFD59EFFFFFFFFFFFA7
:101C1000FFFFFFFFFFFFFFFFFF7F0100000000004D
:101C200000000000073F77FDEFBFFFFFFFFFFFFF52
:101C3000FFFFFFFFFFFFFCE30D7FFFFFFFFFFFFF45
:101C4000FFFFFFFFFFFFFFFFFFFFFFFFFFFFFFFFA4
:101C5000FFFFFFFFFFFFFFFFFFFFFFFFFFFFFFFF94
:101C6000FFFFFFFFFFFFFFFFFFFFFFFFFFFFFFFF84
:101C7000FFFFFFFFFFFFFFFFFFFFFFFFFFFFFFFF74
:101C8000FFFFFFFFFFFFDFB37DFE7FBFDFEFF1FD53
:101C90007FBFCFF3FD7F1F0F010000000000000099
:101CA000000000000000000103074F0E19330F1F52
:101CB0003F3F3E1D5BE76FDF5FCA77FFFFFFFFFF20
:101CC000FFFFFFFFFFFFFFFFFFFFFFFFFFFFFFFF24
:101CD000FFFFFFFFFFFFFFFFFFFFFFFFFFFFFFFF14
:101CE000FFFFFFFFFFFFFFFFFFFFFFFFFFFFFFFF04
:101CF000FFFFFFFFFFFFFFFFFFFFFFFFFFFFFFFFF4
:101D0000FFFFFFFFFFFFFFFFFF3F00010301010097
:101D100003030101000000000000000000000000BB
:101D200000000000000000000001280021880021C0
:101D300008401180002FF9AFF9AFF9AF7FFFFFFF27
:101D4000FFFFFFFFFFFFFFFFFFFFFFFFFFFFFFFFA3
:101D5000FFFFFFFFFFFFFFFFFFFFFFFFFFFFFFFF93
:101D6000FFFFFFFFFFFFFFFFFFFFFFFFFFFFFFFF83
:101D7000FFFFFFFFFFFFFFFFFFFFFFFFFFFFFFFF73
:101D8000FFFFFFFFFFFF7F1F0100000000000000BA
:101D90000000000000000000000000000000000043
:101DA00000000000000000000000000510400421B9
:101DB000084012800420810F3AEFBAEFBB75DF773D
:101DC000DFBF7FFFFFFFFFFFFFFFFFFFFFFFFFFF03
:101DD000FFFFFFFFFFFFFFFFFFFFFFFFFFFFFFFF13
:101DE000FFFFFFFFFFFFFFFFFFFFFFFFFFFFFFFF03
:101DF000FFFFFFFFFFFFFFFFFFFFFFFFFFFFFFFFF3
:101E0000FF7F3F1F070100000000000000000000EE
:101E100000000000000000000000000000000000C2
:101E200000000000000000000000000000000201AF
:101E30000810428800920004200841068F153F7563
:101E4000EEBB77DDEEBBEFBB57EFBFEFBF5FFFBF72
:101E5000FFBF7FFF7FFF7FFFFFFFFFFFFFFFFFFF52
:101E6000FFFFFFFFFF7FFF7FFF7FFF7FFFBFFFBF02
:101E7000FFBF7FDF7FDF6F7F37BF9FCBE7B3D9DD4A
:101E8000DEBFB777F7F7FFF6FCE0E0800000000068
:101E90000000000000000000000000000000000042
:101EA000808080C0C0C0C0C0C08080808000000032
:101EB0000000000000000208010840220880128093
:101EC00004210127860B1E1B356E7BEEBBD5EEBBB6
:101ED0006EFB577D577D372D3E2B3E3EDB9EDB9EB6
:101EE000DB9EDB9EDB95DF95DFD5CFCDEEEBE6E726
:101EF000F2F3FBF9FDFCFEFEFFFFFFFFFFFFFFFF1C
:101F0000FFFFFFFF7E59677F3F3F1F0F000000006C
:101F1000000000000000000000000080E0E0F6F794
:101F2000FBFFFBFBFBFBFB7BBBBFDFDFFFDFFF9EA2
:101F3000BCF9F5E1EAE5C995C295A89688A4A894EC
:101F4000A891C892D0C8E1E8E2E0F4F0F8787C3ECD
:101F50000800000000000000000000000000000178
:101F60000001000100010001010101010101010165
:101F7000010101010101030303030303030303033D
:101F8000010101000000000000000000000000004E
:101F900000000000000000000000001F3F3F7F7FA6
:101FA0007F7F7F7F037DFEFFFFFFFFFFFFFFFFFFC0
:101FB000FFFF7F7F7F3F3F1F1F1F0F0F0F0F070781
:101FC00007070303030303010101000000000000F1
:101FD0000000000000000000000000000000000001
:101FE00000000000000000000000000000000000F1
:101FF00000000000000000000000000000000000E1
:1020000000000000000000000000000000000000D0
:1020100000000000000000000000000000000000C0
:1020200000000000000000010101010101010101A7
:1020300000000000000000000000000000000000A0
:102040000000000000000000000000000000000090
:102050000000000000000000000000000000000080
:102060000000000000000000000000000000000070
:102070000000000000000000000000000000000060
:102080000000000000000000000000000000000050
:102090000000000000000000000000903F9133921B
:1020A0003A93330240913A0241913A02409136020A
:1020B00040903D91359235933102409135024091E7
:1020C0003502409135011F9136012180818283E0E4
:1020D000000103070F1F3F7F00000000003E5B4F21
:1020E0005B3E3E6B4F6B3E1C3E7C3E1C183C7E3C78
:1020F000181C577D571C1C5E7F5E1C00183C180086
:10210000FFE7C3E7FF0018241800FFE7DBE7FF3015
:10211000483A060E2629792926407F050507407F83
:1021200005253F5A3CE73C5A7F3E1C1C08081C1CF6
:102130003E7F14227F22145F5F005F5F06097F01EC
:102140007F006689956A606060606094A2FFA294D7
:1021500008047E040810207E201008082A1C0808A5
:102160001C2A08081E101010100C1E0C1E0C3038F3
:102170003E3830060E3E0E06000000000000005FF4
:1021800000000007000700147F147F14242A7F2A10
:1021900012231308646236495620500008070300D2
:1021A000001C2241000041221C002A1C7F1C2A081E
:1021B000083E080800807030000808080808000081
:1021C00060600020100804023E5149453E00427FF5
:1021D000400072494949462141494D331814127F44
:1021E0001027454545393C4A4949314121110907E4
:1021F0003649494936464949291E00001400000065
:102200004034000000081422411414141414004136
:1022100022140802015909063E415D594E7C1211F3
:10222000127C7F494949363E414141227F4141412B
:102230003E7F494949417F090909013E41415173A6
:102240007F0808087F00417F41002040413F017F17
:10225000081422417F404040407F021C027F7F04DF
:1022600008107F3E4141413E7F090909063E415128
:10227000215E7F09192946264949493203017F0118
:10228000033F4040403F1F2040201F3F4038403F19
:10229000631408146303047804036159494D43002F
:1022A0007F4141410204081020004141417F040266
:1022B00001020440404040400003070800205454FD
:1022C00078407F28444438384444442838444428DB
:1022D0007F385454541800087E090218A4A49C782E
:1022E0007F0804047800447D40002040403D007F8A
:1022F0001028440000417F40007C047804787C086A
:102300000404783844444438FC182424181824243D
:1023100018FC7C08040408485454542404043F4422
:10232000243C4040207C1C2040201C3C4030403C51
:1023300044281028444C9090907C4464544C4400B1
:102340000836410000007700000041360800020115
:102350000204023C2623263C1EA1A161123A404001
:10236000207A38545455592155557941215454787F
:1023700041215554784020545579400C1E52721218
:1023800039555555593954545459395554545800A0
:1023900000457C410002457D420001457C40F0291A
:1023A0002429F0F0282528F07C5455450020545469
:1023B0007C547C0A097F49324949493232484848AD
:1023C00032324A4848303A4141217A3A42402078F4
:1023D000009DA0A07D39444444393D4040403D3CEF
:1023E00024FF2424487E4943662B2FFC2F2BFF0912
:1023F00029F620C0887E0903205454794100004406
:102400007D413048484A32384040227A007A0A0AF0
:10241000727D0D19317D2629292F28262929292663
:1024200030484D4020380808080808080808382FA8
:1024300010C8ACBA2F102834FA00007B0000081432
:102440002A142222142A14089500220095AA005565
:1024500000AAAA55AA55AA000000FF00101010FFFC
:1024600000141414FF001010FF00FF1010F010F003
:10247000141414FC001414F700FF0000FF00FF14F4
:1024800014F404FC141417101F10101F101F141440
:10249000141F00101010F0000000001F101010108A
:1024A0001F10101010F010000000FF10101010107E
:1024B00010101010FF10000000FF140000FF00FFBC
:1024C00000001F10170000FC04F414141710171458
:1024D00014F404F40000FF00F7141414141414147A
:1024E000F700F7141414171410101F101F141414ED
:1024F000F4141010F010F000001F101F0000001F57
:1025000014000000FC140000F010F01010FF10FF89
:10251000141414FF141010101F00000000F010FF1E
:10252000FFFFFFFFF0F0F0F0F0FFFFFF0000000002
:1025300000FFFF0F0F0F0F0F38444438447C2A2A46
:102540003E147E02020606027E027E026355494167
:10255000633844443C04407E201E2006027E020272
:1025600099A5E7A5991C2A492A1C4C7201724C3086
:102570004A4D4D303048784830BC625A463D3E495D
:102580004949007E0101017E2A2A2A2A2A44445F01
:10259000444440514A444040444A51400000FF01F5
:1025A00003E080FF000008086B6B08361236243603
:1025B000060F090F06000018180000001010003068
:1025C00040FF0101001F01011E00191D1712003CF0
:1025D0003C3C3C00000000000000000024002700FC
:1025E0002A002D00300000000000250028002B00EC
:1025F0002E0031000408020110408040102040806D
:102600004080080204018040201002011080102048
:1026100040402004040404040304050202020204EE
:10262000030202020206060606060604040202026D
:10263000040406011501260137014A015D017201FA
:1026400088019F01B801D201EE010B022A024B0260
:102650006E029302BA02E40210033F037003A40364
:10266000DC03170455049704DD0427057505C80528
:1026700020067D06E0064907B8072D08A9082D09A0
:10268000B9094D0AEA0A900B400CFA0CC00D910EE4
:102690006F0F5A1053115B1272139A14D41520172E
:1026A0008018F519801B231DDE1EB420A622B52438
:1026B000E4263429A72B402E0031EA330037453A6F
:1026C000BC3D68414C456B49C84D68524F57805CD2
:1026D000006210111213151617181A1C1D1F212342
:1026E0002527292C2E3134373A3E4145494E525741
:1026F0005C62686E757B838B939CA5AFB9C4D0DC9C
:10270000E9F7080B000202020100090400000102BF
:102710000200000524001001052401010104240227
:102720000605240600010705810310004009040185
:1027300000020A00000007050202400000070583AE
:10274000024000000403090412010002EF020140EC
:102750004123368000010102030141726475696EF4
:102760006F204C4C430041726475696E6F204C655C
:102770006F6E6172646F0000873511241FBECFEF4A
:10278000DAE0DEBFCDBF12E0A0E0B1E0E2E4FEE6B9
:1027900002C005900D92AC3AB107D9F727E0ACEA38
:1027A000B2E001C01D92A638B207E1F713E1CDEB0C
:1027B000D3E104C02197FE010E940D37CC3BD10725
:1027C000C9F70E94D4240C941F370C940000CF92B8
:1027D000DF92EF92FF920F931F93CF93DF936C01E1
:1027E0007A018B01C0E0D0E0CE15DF0581F0D80181
:1027F0006D918D01D601ED91FC910190F081E02D5C
:10280000C6010995892B11F02196EECF7E01C701F3
:10281000DF91CF911F910F91FF90EF90DF90CF90BC
:102820000895CF92DF92EF92FF921F93CF93DF93A1
:10283000E82FF0E0EB5BFE4F1081E62FF0E0603315
:1028400030F4EE52F94DE491CE2FD0E006C0EE0FF9
:10285000FF1FEE52FA4DC591D4916E01E12CF12C7F
:1028600060E074E284EF90E0A70196010E94763662
:10287000BA01A90141505109610971094115510578
:1028800081E06807710580F060E970ED83E090E019
:10289000A70196010E947636BA01A901415051095B
:1028A0006109710983E001C081E01130E9F0133062
:1028B00091F590919100987F892B8093910050938E
:1028C0009900409398001092950010929400D09334
:1028D000D502C093D40281E08093D302809171002D
:1028E00082608093710017C09091E502911113C02E
:1028F00090918100987F892B80938100509389006B
:1029000040938800109285001092840080916F009F
:10291000826080936F00DF91CF911F91FF90EF90C5
:10292000DF90CF9008958091AE02089508950895A4
:1029300080E090E008950E941337CF92DF92EF92EB
:10294000FF92611571058105910549F06B017C01CC
:102950000E940936A70196010E94763603C060E006
:1029600070E0CB01FF90EF90DF90CF9008951F9221
:102970000F920FB60F9211248F939F93AF93BF9333
:10298000EF93FF938091E502882309F449C0809179
:10299000E0029091E102A091E202B091E302892B62
:1029A0008A2B8B2B51F19091CA02E091C802F091D1
:1029B000C9028081892780838091E0029091E102A1
:1029C000A091E202B091E302181619061A061B063E
:1029D000A4F58091E0029091E102A091E202B09111
:1029E000E3020197A109B1098093E0029093E1020B
:1029F000A093E202B093E30220C01092E40210928E
:102A0000E50280916F008D7F80936F008091CA02F4
:102A1000E091C802F091C9029081809589230CC091
:102A20008091D202811109C09091CA02E091C8023E
:102A3000F091C902808189278083FF91EF91BF9136
:102A4000AF919F918F910F900FBE0F901F9018958F
:102A5000E82FF0E0EB5BFE4F8081813019F083308E
:102A600089F008958091E50281111CC080916F006A
:102A70008D7F80936F008091CA02E091C802F0912F
:102A8000C9020CC01092D3028091E40281110AC0E5
:102A90008091D102E091CF02F091D0029081809597
:102AA000892380830895CF93DF93D1E0E091AF0233
:102AB000F091B002DF011196B093B002A093AF0283
:102AC0009491892F807FC92FCF70803821F48C2F6B
:102AD0000E942815EBCF8039F9F4E0910607F091B8
:102AE000070709958D278093D202E091AF02F091FC
:102AF000B002CF0101969093B0028093AF0264912F
:102B000080910507C81790F6C13009F052C0809136
:102B1000C7028111CBCF4DC087FD3AC03296F093EA
:102B2000B002E093AF02FD01A491B0E0B92B209177
:102B3000D4023091D5020E94CA366C507E4F8F4F1E
:102B40009F4F28EE33E040E050E00E94A8362093EB
:102B5000CB023093CC024093CD025093CE028091B1
:102B6000CB029091CC02A091CD02B091CE02892BE4
:102B70008A2B8B2B21F581E090E0A0E0B0E08093E0
:102B8000CB029093CC02A093CD02B093CE0217C09B
:102B9000803E49F48091B1029091B2029093B002CC
:102BA0008093AF0283CF803F09F080CF109204075B
:102BB00006C067FD7BCF8C2F0E94111477CFDF9169
:102BC000CF9108951F920F920FB60F9211242F9359
:102BD0003F934F935F936F937F938F939F93AF93A5
:102BE000BF93EF93FF938091D302882341F08091AC
:102BF000E402811104C08091D202882351F18091B6
:102C00000407882381F18091CB029091CC02A0919E
:102C1000CD02B091CE02892B8A2B8B2B21F1809192
:102C2000CB029091CC02A091CD02B091CE0201973F
:102C3000A109B1098093CB029093CC02A093CD025D
:102C4000B093CE02892B8A2B8B2B69F40E945315EB
:102C50000AC09091D102E091CF02F091D002808120
:102C600089278083CCCFFF91EF91BF91AF919F9146
:102C70008F917F916F915F914F913F912F910F9025
:102C80000FBE0F901F90189590910507923009F490
:102C900071C0292F30E0F901EB5BFE4F4081F90153
:102CA000EB53FD4F8083913031F42091C5028213A4
:102CB00002C09093C7029F5F9093050790E0FC01CC
:102CC000ED5EF94D2491FC01EC50FA4D849130E019
:102CD000220F331FF901EA51FA4D65917491F90100
:102CE000E852FA4DA591B4919C91982B9C93413058
:102CF00019F04330D9F0089590916400977F909334
:102D00006400109280001092810090918100986080
:102D100090938100909181009160909381007093D5
:102D2000C9026093C8028093CA0208959091650019
:102D3000977F90936500109290001092910090916F
:102D40009100986090939100909191009160909380
:102D500091007093D0026093CF028093D102809152
:102D60000507882321F06CE380E00E94111480E0C5
:102D70000C94281508954F925F926F927F928F92D4
:102D80009F92AF92BF92CF92DF92EF92FF920F93FA
:102D90001F93CF93DF9300D000D0CDB7DEB7DC0117
:102DA00039012C2DA02EB12CC5018A0F9B1F18169E
:102DB00019060CF0AEC1A038B1050CF0AAC1FB0198
:102DC000EE0DF11D1E161F060CF0A3C16034710537
:102DD0000CF09FC14115510509F49BC1362F377086
:102DE000F32EFB0177FD379633E0F595E7953A959D
:102DF000E1F73E2F77FF04C0FF2011F03FEF3E0FB9
:102E0000B7FF05C0EE27FF27EA1BFB0B02C0E0E07F
:102E1000F0E0803891051CF090E89A1B01C0902FDB
:102E20009E1B632F032E000C770B3F3F1CF4162FC5
:102E3000109501C010E0DD24D3948E2D877009F425
:102E4000D12CE694E694E694ED0C6E0D711D69307C
:102E500071051CF088E0E82EE31AE11A310F60E8F2
:102E60003603A00DB11D1124AE0FBF1F019FE00D51
:102E7000F11D11244E0F5F1F61E070E04B010F2C1C
:102E800002C0880C991C0A94E2F7233009F4FFC0B1
:102E9000B8F4213009F4B3C0223009F03AC18FEF01
:102EA000889D8001899D100D1124009510951A832D
:102EB00009832A81FD01EA51FD4F2F01E30E29C04C
:102EC0002A3FD1F12B3F09F024C1FD01EA51FD4F0A
:102ED0006F01E30E82C08491889D6001899DD00CB2
:102EE0001124DC82CB8237FD05C0DB018C9180236D
:102EF000C82ACC92F11013C031966F5F7F4F8E2F8E
:102F0000841B891740F33F5F4A0D5B1DB0E84B0EF1
:102F1000511C3E1509F4FDC0B201FA01F0CF373063
:102F20005CF76B01B0E8CB0ED11CD6018C918223EB
:102F30007C8087298C93E0CFFD01EA51FD4F6F0122
:102F4000E30E3E1509F4E5C08601FA018E2F841BBD
:102F50008917F0F48491889DB001899D700D11242A
:102F60007C836B8337FD04C0D8018C91682B6C93F4
:102F7000FF2051F0373044F4B80160587F4FDB0137
:102F80002C918C81822B8C9331960F5F1F4FDECF5B
:102F90003F5F4A0D5B1DB0E8CB0ED11CD2CF8491B0
:102FA000889D8001899D100D11241C830B8337FDA2
:102FB00005C00095DB018C9108230C93F11013C020
:102FC00031966F5F7F4F8E2F841B891740F33F5FD1
:102FD0004A0D5B1DB0E8CB0ED11C3E1509F499C01B
:102FE000B601FA01F0CF37305CF78B0100581F4F64
:102FF0008C818095D8012C9182238C93E1CFB301F1
:103000006E0F7F1FAA51BD4FE30E3E1509F481C01C
:103010008D01C12CD12CC91690F5FB01EC0DFD1DC5
:10302000E491E89D3001E99D700C11246094709446
:103030007A826982FA01EC0DFD1DE491E89D200180
:10304000E99D500C11245C824B8237FD05C0F801CC
:103050008081682246284082FF2059F037304CF4A6
:10306000F801E058FF4F20818A8182232C81822B36
:103070008083FFEFCF1ADF0A0F5F1F4FCCCF3F5F78
:103080004A0D5B1D6A0D7B1DA058BF4FBECFC92ED8
:10309000D12CE40FF51FAA51BD4F00E810E00C1928
:1030A0001D09AC18BD08A501440F551F792F2E2D01
:1030B000792ECF93DF93ED01EF96EF962296A590B0
:1030C000C590FF2059F0A89C5001C89C6001373082
:1030D0002CF4E880D094ED20EB28E99233233AF0E9
:1030E000EC90C094EC20EA28ED920C94781811969C
:1030F0007A9529F72A9551F0772D33951124E40F0D
:10310000F11DA00FB11DC00FD11DD9CFDF91CF91FF
:1031100011240F900F900F900F90DF91CF911F917E
:103120000F91FF90EF90DF90CF90BF90AF909F9066
:103130008F907F906F905F904F900895CF92EF9215
:103140000F93CF93DF934115510539F1FA010491A3
:103150003196E4904E5F5F4F2223C9F0A1E0B0E0CA
:103160003E2D377011F4A0E0B0E03E2D3695369537
:103170003695A30FB11D0A9FE0010B9FD00D1124BE
:103180002C9FF0012D9FF00D11244E0F5F1F2AEF91
:10319000C22E20E030E00E94BB16DF91CF910F914C
:1031A000EF90CF9008952D9A0895BC0180E090E0B3
:1031B0000C948B208FB18095807F669B88601C9BD0
:1031C000846008958EBD00000DB407FEFDCF089504
:1031D0005C9808955C9A08950C9460361092AE0243
:1031E0003E983F9808953E9A3F9A81E08093AE02C0
:1031F000089590E1282F81E061FD84E060FD880F53
:1032000062FD8295687F969FD0011124A20FAA517A
:10321000BD4F9C91982B40FF98279C9308952F9227
:103220003F924F925F926F927F928F929F92AF9256
:10323000BF92CF92DF92EF92FF920F931F93CF93A3
:10324000DF93CDB7DEB727970FB6F894DEBF0FBE7A
:10325000CDBF9F838E836A30A1F4DC0155962C91FB
:10326000559751968D919C915297B8E02B9F800D68
:10327000911D1124EE81FF81928B818B108A17861C
:10328000B5C06D3009F4B2C0AE81BF811F960D91FB
:103290001C91509700381105BCF0EE81FF81258903
:1032A000422F50E087859089F6E02F9F800D911D79
:1032B0001124AE81BF8150969C938E931F97569692
:1032C0002C9121117DC092C0EE81FF81818892886E
:1032D000F0E48F1691040CF7AE81BF8155963C90B7
:1032E000C801B5E03B9E800D911D112418161906EA
:1032F000A4F6432C512CC401E8E03E9E800D911DA4
:103300001124181619064CF6AE81BF815496BC9153
:10331000BC83EE81FF81F389FD8325E0629FB001CC
:103320001124CB0188529F4D3C011982F301249056
:10333000F981F53009F4212C540128E02B8320FE7B
:1033400003C03D813A8302C08C818A839A819111A6
:1033500004C0AC81BD81AB17F9F078018E2D801BC4
:103360008315D0F465018C2D8A19831588F4E0E863
:10337000EE16F10448F4F0E4CF16D10428F44A81A3
:10338000B601C7010E94F9182FEFC21AD20AEBCF7B
:103390003FEFE31AF30AE2CF26948B8181508B83AF
:1033A000A40CB51C8111CBCF99819F5F9983040D2B
:1033B000151DD30111963D01963009F0B7CF6DCFA1
:1033C0006AEF64039001659F300D112420583F4F30
:1033D000281739075CF4AE81BF81ED91FC911197FC
:1033E0000190F081E02D6AE0CD01099581E090E047
:1033F00027960FB6F894DEBF0FBECDBFDF91CF91F9
:103400001F910F91FF90EF90DF90CF90BF90AF9002
:103410009F908F907F906F905F904F903F902F90F4
:10342000089580E00C94B421E9E0F7E083E290E0B5
:10343000908B87878AE290E0928B818B8CE392E07D
:103440000E9420216091B8027091B9028091BA0265
:103450009091BB024AE00E9422218DE097E00C94FB
:10346000111A0E94C3210E94DA1883FD06C00E942F
:10347000DA1882FD02C080E0089582E08093B702EE
:103480000E94D72081E008954F925F926F927F92C1
:10349000AF92BF92CF92DF92EF92FF920F931F9362
:1034A000CF93DF93F82E5B0129013A01C9E0D7E001
:1034B00087E2C82ED12CD88ACF8610E01A8B098BD0
:1034C0008DE892E00E9420216F2D70E080E090E076
:1034D0004AE00E94222182E992E00E942021C50157
:1034E0000E94682188EE91E00E942021D88ACF8630
:1034F000F12CFA8AE98A88E992E00E9420214AE0C8
:10350000C301B201DF91CF911F910F91FF90EF9016
:10351000DF90CF90BF90AF907F906F905F904F9073
:103520000C942221CF92DF92EF92FF922091AD0274
:10353000211112C0C090B802D090B902E090BA0236
:10354000F090BB026C157D058E059F0530F481E07F
:103550008093AD0221E001C020E0822FFF90EF9028
:10356000DF90CF9008952F923F924F925F926F928B
:103570007F928F929F92AF92BF92CF92DF92EF9203
:10358000FF920F931F93CF93DF93CDB7DEB764976E
:103590000FB6F894DEBF0FBECDBF3A014701FA0166
:1035A000A49031964491F70144903196E491B12C66
:1035B000D501A80FB91F2A173B070CF054C1512C95
:1035C0007901E40CF51C8E159F050CF04CC11B0114
:1035D000240E311CA101021513050CF044C1680131
:1035E000CE0ED11C6C157D050CF03DC11C0182175F
:1035F00093070CF41901FB01601771070CF4F80133
:10360000C416D5060CF4A6016101C81AD90ADA82DB
:10361000C982EA16FB060CF4D7017D01E81AF90A03
:10362000F88AEF867F01E61AF70AC701A3E09695AC
:103630008795AA95E1F7D701A770BB27BC83AB8319
:103640006A01C61AD70AD60111977D01B3E0F69434
:10365000E794BA95E1F7D601A770BB27BE83AD8387
:103660006101C21AD30ADC8ACB8AE01BF10BDF01AD
:1036700023E0B695A7952A95E1F79F012770332798
:1036800038872F83401B510B6A0131E0C31AD108E0
:1036900033E0D694C7943A95E1F7BA01677077277B
:1036A0007A876987A89E8001A99E100DB89E100D8B
:1036B000112429803A80020D131D0E5F1F4F4A9E70
:1036C00090014B9E300D5A9E300D11244B895C8920
:1036D000240F351F2E5F3F4F6D817E8160537F4DDC
:1036E0007C876B8749855A8540535F4D5E874D8740
:1036F000F301E00FF11F6491462F50E08E159F05F6
:1037000049F46D817E81672B29F0EB85FC856491FE
:1037100070E002C06FEF70E064237523F401E20FE4
:10372000F31F4491242E312CAC15BD0549F4498575
:103730005A85452B29F0ED85FE85449150E002C065
:103740004FEF50E0422153212B803C80232811F180
:103750008E159F05FCF4F801EA0DFB1DE60DF71D23
:103760003490E32DF0E0FA8BE98BFC013196EE16F4
:10377000FF0631F4EB85FC853490E32DF0E002C0C8
:10378000EFEFF0E029883A882E223F22322C2224C3
:10379000622973292F803884232811F1AC15BD05C7
:1037A000FCF4F901E40DF51DE80DF91DE4912E2E50
:1037B000312C3A8A298AFD013196CE16DF0631F482
:1037C000ED85FE853490E32DF0E002C0EFEFF0E0F0
:1037D00029883A882E223F22322C2224422953293A
:1037E0000B8002C0769567950A94E2F70F8002C0BD
:1037F000569547950A94E2F764237523611131C009
:103800008A9DA0018B9D500D9A9D500D11246F85AE
:103810007889640F751F6F5F7F4F601771072CF0F9
:103820000F5F1F4F2F5F3F4F63CF8E159F05DCF457
:10383000019611968501040F151F29813A81020F07
:10384000131F0E5F1F4F4A9E90014B9E300D5A9ED4
:10385000300D11244B895C89240F351F2E5F3F4F9B
:1038600047CF81E001C080E064960FB6F894DEBFD8
:103870000FBECDBFDF91CF911F910F91FF90EF90C1
:10388000DF90CF90BF90AF909F908F907F906F9080
:103890005F904F903F902F900895CF92DF92EF92DC
:1038A000FF920F931F93CF93DF938C01C0E0D0E082
:1038B0006B01770FEE08FF08C017D107C4F40E9410
:1038C000E81887EA0E94E2180E94EA18C701B601C8
:1038D0000E948B200E94E81886EA0E94E2180E944B
:1038E000EA18C701B6010E948B202196E5CFDF912F
:1038F000CF911F910F91FF90EF90DF90CF9008959F
:1039000080912F018F5F843018F480932F010895E8
:1039100010922F0108956FE972E086EE96E00E9402
:10392000183763EA72E080EF96E00E94183767EA82
:1039300072E08AEF96E00E941837E6EEF6E0178A0A
:10394000108E118E128E158616861786108A138297
:103950001482158216820C94FF20FF920F931F93FE
:10396000CF93DF93EC01F62E08811981C8010E94E4
:103970006036F81621F06F2DC8010E946836CE011E
:10398000DF91CF911F910F91FF900895CF93DF9317
:103990001F92CDB7DEB76983DC01ED91FC91028007
:1039A000F381E02D41E050E0BE016F5F7F4F09954C
:1039B0000F90DF91CF91089583E08093E90080918B
:1039C000F200882319F08AE38093E8000895FC014F
:1039D0008485958597FD0BC09FB7F89482E080930E
:1039E000E9008091F2009FBF90E0019608959FB793
:1039F000F89482E08093E9008091F2009FBF90E00C
:103A000008954091D9025091DA022091D702309165
:103A1000D80242175307B4F49091E8009570E1F38F
:103A20009091E80092FD19C08093F1008091D90235
:103A30009091DA0201968F739927892B19F48EEFF2
:103A40008093E8008091D9029091DA0201969093D8
:103A5000DA028093D90281E0089580E00895DF9230
:103A6000EF92FF920F931F93CF93DF93D82E8A018B
:103A70007B01E40EF51EEB01CE15DF0571F0D7FEDC
:103A800003C0FE01849101C088810E94011D21961E
:103A90008111F2CF8FEF9FEF01C0C801DF91CF916D
:103AA0001F910F91FF90EF90DF900895615030F0DB
:103AB0002091F100FC0120830196F8CF289884E63C
:103AC0008093DE0208950E94BA2390E008950F9338
:103AD0001F93CF93DF931F92CDB7DEB78C01FC010C
:103AE0008485958597FF0EC0CE0101960E948C2398
:103AF000019719F4898190E002C08FEF9FEFF801E0
:103B000095878487F801848595850F90DF91CF9103
:103B10001F910F910895CF93DF931F92CDB7DEB71A
:103B2000FC018485958597FD05C02FEF3FEF358714
:103B300024870BC0CE0101960E948C23019719F4B3
:103B4000898190E002C08FEF9FEF0F90DF91CF91BE
:103B500008950F931F93CF93DF931F92CDB7DEB7D6
:103B600082E0898342E450E062E077E280E80E94EC
:103B70002F1D0E945124DC0112960D911C91139768
:103B80000115110589F0D801ED91FC910280F381B6
:103B9000E02DBE016F5F7F4FC801099597FD04C0FE
:103BA000F80100851185ECCF89810F90DF91CF91CD
:103BB0001F910F9108951F920F920FB60F9211242B
:103BC0008F939F938091E1009091E100937F909378
:103BD000E10083FF0FC01092E90091E09093EB00A9
:103BE0001092EC0092E39093ED001092DF0298E0C7
:103BF0009093F00082FF20C093E09093E9009091B1
:103C0000F200992319F09AE39093E8009091DC0276
:103C1000992339F09091DC0291509093DC02992322
:103C200089F19091DE02992339F09091DE02915052
:103C30009093DE02992341F184FF10C08091E2004D
:103C40008E7E81608093E2008091E1008F7E809380
:103C5000E1008091DD028E7E806111C080FF16C080
:103C60008091E2008E7E80618093E2008091E1008D
:103C70008E7E8093E1008091DD028E7E8160809354
:103C8000DD0204C05D9ACDCF289AD6CF9F918F9147
:103C90000F900FBE0F901F9018951F920F920FB6A6
:103CA0000F921124CF92DF92EF92FF920F931F9306
:103CB0002F933F934F935F936F937F938F939F9334
:103CC000AF93BF93EF93FF93CF93DF93CDB7DEB75F
:103CD0006C97DEBFCDBF1092E9008091E80083FFB2
:103CE000FBC168E0CE0145960E94561D82EF80938D
:103CF000E8008D8987FF05C09091E80090FFFCCF18
:103D000003C09EEF9093E800982F907609F0C6C00C
:103D10009E894F89588D2F89F88C91110CC080385D
:103D200029F48091D6028093F10002C01092F10034
:103D30001092F10045C1913051F4811141C14130DF
:103D4000510509F03DC18091D6028D7F0BC09330A3
:103D500061F4811135C14130510509F031C18091C3
:103D6000D60282608093D6022BC1953049F48091AF
:103D7000E80080FFFCCF822F80688093E30020C1A1
:103D8000963009F05EC00B8D1C8D22E01092E90088
:103D90001092DA021092D902F21232C01092D802B6
:103DA0001092D7020E94A91D99E0BE016F5F7F4F5C
:103DB000DB01E92F1D92EA95E9F79983FA8291E0F8
:103DC0009E8390EA98879AEF99872091D902309143
:103DD000DA02275F3F4F3C832B838D831092E900EB
:103DE0001092DA021092D9021093D8020093D702EF
:103DF00049E050E080E00E942F1D0E94A91DE0C014
:103E00001093D8020093D7020E945124DC0112962D
:103E10000D911C9113970115110509F4BBC0D80130
:103E2000ED91FC910480F581E02DBE016B5E7F4F2A
:103E3000C8010995009709F0C7C0F80100851185F0
:103E4000EACF973009F445C1983021F481E080939E
:103E5000F100B6C0993009F0B3C0837009F039C1E0
:103E6000E8E4F1E081E031E096E32081211109C02E
:103E70008EE78093EA001092EA008F898093DF0238
:103E80009FC08093E9003093EB0021912093EC00D8
:103E90009093ED008F5F873041F7EACF8B8D9C8D3B
:103EA0001092E9001092DA021092D9029093D8028F
:103EB0008093D702898D811153C08E899D89913A53
:103EC00049F4813209F005C147E050E069E371E04F
:103ED00080E0BBC0913209F0FCC0833269F48F8965
:103EE000988DA0E0B0E08093350190933601A093C7
:103EF0003701B093380164C0803269F48091E800E2
:103F000082FFFCCF67E089E391E00E94561D8BEFB2
:103F10008093E80055C0823209F052C08F898093A7
:103F20004001EEEFFFE7859194918B3F9C4D19F096
:103F3000E0E0F8E002C0EEEFFAE080913901909104
:103F40003A01A0913B01B0913C01803B9440A10516
:103F5000B10509F09EC08091400180FF79C099C0F1
:103F60000E945124FC01028113810115110509F4FD
:103F7000B0C0D801ED91FC910190F081E02DBE011F
:103F80006B5E7F4FC801099581111AC0F801008549
:103F90001185EBCFF1E0FF1609F44EC0F3E0FF12FC
:103FA00098C08F89882309F44AC0823089F440E898
:103FB00060E186E697E20E945235882309F489C0C1
:103FC0008EEF8093E80088C018161906CCF381C0E4
:103FD000813029F440E86BE08AE597E2ECCF83304A
:103FE00009F077C00E945124DC011296ED90FC90FC
:103FF00013978E010F5F1F4F6801E114F10479F0F0
:10400000D701ED91FC910680F781E02DB801C70141
:104010000995080F111DF701E084F184EECFD80156
:104020001C92F60101900020E9F73197BF016C194D
:104030007D0940E0C601BFCF68E477E202C064E4D6
:1040400077E2FB01449150E080E80E942F1DB8CF39
:10405000EE3F2AE0F20751F0808191818737A7E790
:104060009A0721F09093FF0A8093FE0A87E797E76B
:1040700091838083809160008093DB029BE088E1E4
:104080000FB6F894A895809360000FBE90936000DF
:1040900097CF808191818737974709F091CFA89575
:1040A000809160008861809360008091DB02809342
:1040B0006000EE3FBAE0FB0739F08091FE0A909174
:1040C000FF0A918380837CCF1092FF0A1092FE0A30
:1040D00077CF81E28093EB006C960FB6F894DEBF49
:1040E0000FBECDBFDF91CF91FF91EF91BF91AF9107
:1040F0009F918F917F916F915F914F913F912F9100
:104100001F910F91FF90EF90DF90CF900F900FBE17
:104110000F901F9018958F929F92AF92BF92CF925F
:10412000DF92EF92FF926B017C010E9465244B01AC
:104130005C01C114D104E104F104F1F00E94652492
:10414000DC01CB0188199909AA09BB09883E934073
:10415000A105B10570F321E0C21AD108E108F10808
:1041600088EE880E83E0981EA11CB11CC114D104F6
:10417000E104F10419F7DDCFFF90EF90DF90CF90CD
:10418000BF90AF909F908F900895009769F0FC01C9
:1041900001900020E9F73197AF01481B590BBC0192
:1041A00089E097E00C94E71380E090E00895CF93C6
:1041B000C0E080910507C81728F48C2F0E942815AD
:1041C000CF5FF7CF10920407CF9108950F931F93FD
:1041D000CF93DF9306EE16E0C2E1D0E0CE010E945D
:1041E0006036F80181938F012196C033D105B1F774
:1041F00086EE96E0DF91CF911F910F910895FF9287
:104200000F931F93CF93DF9306EE16E0C2E1D0E049
:10421000F801F1908F01CE010E946036F81621F06E
:104220006F2DCE010E9468362196C033D10581F7EB
:1042300086EE96E0DF91CF911F910F91FF90089548
:104240000C94C5208F929F92AF92BF920F931F93B1
:10425000CF93DF93CDB7DEB7A1970FB6F894DEBF4B
:104260000FBECDBF19A2423008F44AE08E010F5DA7
:104270001F4F842E912CA12CB12CA50194010E94DA
:10428000A836E62FB901CA0101501109EA3014F429
:10429000E05D01C0E95CD801EC93232B242B252B96
:1042A00061F7C8010E94C520A1960FB6F894DEBF41
:1042B0000FBECDBFDF91CF911F910F91BF90AF90F7
:1042C0009F908F900895682F89E097E00C940F19C4
:1042D000CF92DF92EF92FF92CF93DF936C01990F11
:1042E000EE08FF08F7FE17C08DE20E946321EC0183
:1042F00066277727CB016C197D098E099F094AE053
:104300000E9422218C0F9D1FDF91CF91FF90EF9093
:10431000DF90CF9008954AE0C701B601DF91CF91B9
:10432000FF90EF90DF90CF900C9422212091130703
:10433000282329F490911207982381E009F480E062
:10434000089580E0E6EEF2E081118FEF0024819382
:104350008193819381930394D1F7E9E0F7E0128A86
:10436000118A108A17860895E6EEF2E0A0E0B8E020
:1043700000800EBC8111012C1197A0FDFDCF019290
:10438000B9F70DB40895CF93DF93C9E0D7E08985DD
:104390008A870E94DA188987DF91CF910895AF92BA
:1043A000BF92CF92DF92EF92FF920F931F93CF9322
:1043B000DF937B01EC015C01A40EB11C6B01C20E0A
:1043C000D11CCA15DB05E4F48701F7FE02C000E04A
:1043D00010E0C60121E4C216D10414F080E490E09C
:1043E000081719075CF4C038D10528F441E0B8017A
:1043F000CE010E94F9180F5F1F4FEBCF2196E1CF3E
:10440000DF91CF911F910F91FF90EF90DF90CF90B0
:10441000BF90AF9008952F923F924F925F926F920C
:104420007F928F929F92AF92BF92CF92DF92EF9244
:10443000FF920F931F93CF93DF93CDB7DEB72A97E9
:104440000FB6F894DEBF0FBECDBF5A01822E912C5D
:104450009401280F391F37FDBAC0803891050CF040
:10446000B6C09B01200F311D37FDB1C0603471050E
:104470000CF0ADC0AB0177FF04C044275527461BA5
:10448000570B477055279B0177FF02C0295F3F4FAD
:10449000E3E035952795EA95E1F777FF08C02150CD
:1044A000310968E070E0FB01E41BF50BAF01202E41
:1044B000269426942694312C077019F0FFEF2F1ABA
:1044C0003F0A220E331E39017694762C66247794A7
:1044D0006794680E791EE12CF12C00E010E0B30126
:1044E00060587F4F7A87698768E070E0FB01E41BC2
:1044F000F50BFA83E9832216330609F468C02830E5
:10450000310509F464C02F3FFFEF3F070CF454C09E
:10451000E985FA85E00FF11FBF016A517D4F7C8369
:104520006B83D801A60DB71DAA51BD4F6C0160E089
:1045300070E0681579050CF03FC0E0E8CE16D104B4
:1045400009F43AC0D7FC2CC02F3FFFEF3F0709F416
:104550003AC0FB01EE0DFF1DEA0DFB1DE491042E98
:1045600001C0EE0F0A94EAF7FC91EF2BEC93411592
:104570005105B1F02730310599F0FB01EE0DFF1D1B
:10458000EA0DFB1DE4914E2E512C098002C055947A
:1045900047940A94E2F7EB81FC81508045284082E1
:1045A0006F5F7F4FEB81FC813196FC83EB83FFEFE4
:1045B000CF1ADF0A1196BDCF2F5F3F4F00581F4F14
:1045C000E80CF91C98CF41155105B9F6E9CF2A96A8
:1045D0000FB6F894DEBF0FBECDBFDF91CF911F9114
:1045E0000F91FF90EF90DF90CF90BF90AF909F9092
:1045F0008F907F906F905F904F903F902F90089595
:104600004F925F926F927F928F929F92AF92BF92E2
:10461000CF92DF92EF92FF92CF93DF93EC014A01AA
:104620005B01E0910607F09107070995882309F4DB
:1046300064C080910507823008F45FC081E08093F8
:10464000E50280912C078093E4022E01612C712CED
:1046500060E072E18AE790E0A30192010E94763661
:1046600069017A0181E0C81AD108E108F108C11492
:10467000D10481E0E806F104F0F168E478EE81E02D
:1046800090E0A30192010E94763669017A0181E0EF
:10469000C81AD108E108F10883E090918100987F61
:1046A000892B8093810081149104A104B10471F0DD
:1046B000DE01AA0FBB1FA50194010E94953628EECA
:1046C00033E040E050E00E94A83603C02FEF3FEFF8
:1046D000A901D0928900C09288002093E002309313
:1046E000E1024093E2025093E30280916F00826006
:1046F00080936F0002C081E0D0CFDF91CF91FF9017
:10470000EF90DF90CF90BF90AF909F908F907F9071
:104710006F905F904F9008952091DF02211103C0A8
:104720008FEF9FEF08955FB7F89422E02093E900A0
:104730002091F20030E01216130614F421E030E06C
:10474000422FFC0184E6415038F028988093DE0225
:104750009091F1009193F7CF2115310521F08091CF
:10476000F200882319F05FBFC90108958BE680939A
:10477000E800F9CF2FB7F89483E08093E900909197
:10478000E800892F807295FF04C09091F20080E4C8
:10479000891B2FBF08958F929F92AF92BF92CF92A5
:1047A000DF92EF92FF920F931F93CF93DF936C01F1
:1047B0007B018A0180914001882309F45CC08091CB
:1047C000DF02882309F457C08091DD0280FF05C015
:1047D0008091E00082608093E000E801B12C8AEFD4
:1047E000A82E93E0892E2AE3922E209711F4BB2065
:1047F000D9F10E94BA2381110AC0AA94AA20D9F142
:1048000061E070E080E090E00E948B20EECF282FE6
:1048100030E0C217D3070CF48C2F9FB7F894809226
:10482000E9002091E80025FF1DC0282F30E0C21BC1
:10483000D30BF701815020F041914093F100FACF62
:10484000E20EF31EBB2019F09092E8000AC080919E
:10485000E80085FD07C09092E800BB24B394209740
:1048600009F0B12C9FBFC1CF5D9884E68093DC0234
:104870001016110644F081E090E0F60193838283E4
:1048800080E090E001C0C801DF91CF911F910F91AE
:10489000FF90EF90DF90CF90BF90AF909F908F9060
:1048A00008958091240781110DC082E08093200734
:1048B00084E080932107109223071092220781E061
:1048C0008093240780E297E008953FB7F8948091A1
:1048D000820790918307A0918407B091850726B540
:1048E000A89B05C02F3F19F00196A11DB11D3FBF28
:1048F000BA2FA92F982F8827820F911DA11DB11DB6
:10490000BC01CD0142E0660F771F881F991F4A95B1
:10491000D1F708951F920F920FB60F9211242F9383
:104920003F938F939F93AF93BF9380917D07909117
:104930007E07A0917F07B09180073091810723E027
:10494000230F2D3720F40196A11DB11D05C026E8C7
:10495000230F0296A11DB11D2093810780937D072F
:1049600090937E07A0937F07B09380078091820782
:1049700090918307A0918407B09185070196A11DAE
:10498000B11D8093820790938307A0938407B0930F
:104990008507BF91AF919F918F913F912F910F907C
:1049A0000FBE0F901F901895CF93DF9300D0CDB717
:1049B000DEB7789484B5826084BD84B5816084BD9F
:1049C00085B5826085BD85B5816085BD80916E00AD
:1049D000816080936E0010928100809181008260DE
:1049E000809381008091810081608093810080911B
:1049F000800081608093800080919100826080932C
:104A0000910080919100816080939100809190004D
:104A10008160809390008091C10084608093C10088
:104A20008091C10082608093C1008091C10081604B
:104A30008093C1008091C30081608093C300809106
:104A4000C00082608093C0008091C200816080932A
:104A5000C20080917A00846080937A0080917A000D
:104A6000826080937A0080917A00816080937A00DE
:104A700080917A00806880937A001092DF02109211
:104A8000D6021092DD028091D70081608093D7001A
:104A900080EA8093D80089B5806189BD89B582603C
:104AA00089BD09B400FEFDCF61E070E080E090E0D8
:104AB0000E948B208091D8008F7C80618093D800E9
:104AC0008091E000807F8093E0008091E1008E7E05
:104AD0008093E1008DE08093E200559A209A80E176
:104AE00090E00E94EC18182F81E190E00E94EC18F1
:104AF000143411F48334A1F080E190E09A83898327
:104B000064E4CE0101960E94AD1C81E190E09A839D
:104B1000898363E4CE0101960E94AD1C0E948B1C28
:104B20000E94E62091E09093B3022CE137E03093AD
:104B3000B6022093B5021092B8021092B9021092F8
:104B4000BA021092BB0283E08093B4022CE43EE0F0
:104B5000309334012093330110922F0181EC809324
:104B60007C0085B1806F85B984B1877E84B984B1BA
:104B7000876E84B95E9A5F988AB1806D8AB9769A99
:104B80006E9881B3806F81BB899880B38D7080BB34
:104B900080E58CBD9DBD85E090E00E94D5185F9AB0
:104BA00085E090E00E94D5185E980E94E81804E81D
:104BB00011E0F80184910E94E2180F5F1F4FF1E0AD
:104BC00001391F07B1F70E94EA1881E88093640059
:104BD000809165008160809365008DE097E00E9480
:104BE000111A0E94DA1887FF14C00E94E81885EA9B
:104BF0000E94E2180E94EA182E982F982D98809112
:104C0000640080628093640081E083BF889513BE56
:104C1000FCCF02E010E00E94DA1882FF42C02D981B
:104C20000E94DA188478843831F00E94DA1884718E
:104C3000843191F519C00E94D31888EC90E00E944D
:104C4000D5182F981A8309836FEFCE0101960E9421
:104C5000AD1C84EF91E00E94D5182F9A0E94DA18BB
:104C600084788438D9F3E1CF0E94D31888EC90E09F
:104C70000E94D5182E981A83098360E0CE01019610
:104C80000E94AD1C84EF91E00E94D5182E9A0E94DC
:104C9000DA1884718431D9F388EC90E00E94D51839
:104CA000BACF0E94D31882E090E00E94EC188823CB
:104CB00019F00E94F31802C00E94EE1881E090E003
:104CC0000E94EC18182F147081FF40C011112E980B
:104CD00040EFC42EDD24DA940E94DA1886FF05C066
:104CE0002E9A2F9A0E94D31831C0112331F024E05C
:104CF000C216D10411F42E9A2F9881E00E94B4219B
:104D000000E128E544ED50E0B60184E190E00E9426
:104D10000B228DE097E00E94111A8FE090E00E9434
:104D2000D5183FEFC31AD30A49E1C416D104A1F63E
:104D3000112311F02F9A2D9880E991E00E94D51847
:104D40000E94D31889E097E00E94113582E390E039
:104D50000E94D5180E94DA188111F8CF80E1809363
:104D60001407E1E9F1E0E49120917B00E3FBEE24FC
:104D7000E0F8F12CC70135E0880F991F3A95E1F76B
:104D8000922F9F7D892B80937B00E770E064E093F6
:104D90007C0080917A00806480937A0080917A0010
:104DA00086FDFCCF609178008091790070E0782BCF
:104DB000072E000C880B990B611571058105910573
:104DC00011F00E9457360E94A12185E00E944416EE
:104DD0008DE00E9444168FB7F89440917D07509162
:104DE0007E0760917F07709180078FBF80911507C4
:104DF000942F981B892F90911607992329F080935F
:104E0000170710921607E9C690911407891748F4FE
:104E10008F5F891708F0E1C681E083BF889513BED4
:104E2000DCC681E080931607409315078091100738
:104E300090911107019690931107809310070E949B
:104E4000C3210E94A121E091B7028E2F90E089300A
:104E5000910508F0BEC6FC01EA5AFF4F0C940D37CD
:104E60008DE097E00E94111A68EE73E080E090E018
:104E70000E948B200E94311A8111ABC68BE290E018
:104E8000909319078093180784E190E090931B0793
:104E900080931A0784E791E00E94202188E290E045
:104EA00090931907809318078EE190E090931B0769
:104EB00080931A078CE791E00E9420218DE097E013
:104EC0000E94111A60ED77E080E090E00E948B2054
:104ED0000E94311A81117DC60E94D7208BE990E291
:104EE0009093B2028093B1029093B0028093AF028C
:104EF0000E94531581E08093040720E8E22EFF24EE
:104F0000FA9400EC20E84BE154E1B70180E090E036
:104F10000E940B228DE097E00E94111A0E94A121AD
:104F20000E94311A811155C668E270E080E090E07D
:104F30000E948B20AFEFEA1AFA0AB4EFEB16BFEF2C
:104F4000FB06F9F668EC70E080E090E00E948B20B0
:104F50000FE12BE74FE252E162E170E082E090E086
:104F60000E940B228DE097E00E94111A0EE210E0E1
:104F70006AE070E082E090E00E944D1C015011094F
:104F8000B9F76CED75E080E090E00E948B200E9404
:104F9000D72082E0C1C18091040781110FC08CE449
:104FA00091E19093B2028093B1029093B00280930A
:104FB000AF020E94531581E08093040710E003E2E2
:104FC000802E912C83E3A82EB12C9FE4692E712CA6
:104FD000FF24F3940E94A12102E127E247ED50E172
:104FE00063E070E08BE190E00E940B2227E642EA4A
:104FF0005FE069E170E08BE190E00E940B220DE33D
:1050000029E14AED5EE062E070E080E090E00E941D
:105010000B229092190780921807B0921B07A0925A
:105020001A0785E891E00E9420217092190760928A
:105030001807B0921B07A0921A078BE891E00E9414
:10504000202122E0111106C04EE16BE370E083E203
:1050500090E005C04AE26BE370E08FE490E00E94CC
:10506000CF210E94C32180E20E9496218111BDC5FB
:1050700080E40E9496218111B8C58DE097E00E94DE
:10508000111A88E00E9496218111B1C584E00E9426
:1050900096218111ACC59ECFFF24F3940AE010E065
:1050A000F4E1AF2EB12CA8E08A2E912CB8E26B2E41
:1050B000712CEE24E3940E94A12110921907109202
:1050C000180710921B0710921A0783E991E00E94BB
:1050D0002021109219071092180710931B070093B4
:1050E0001A07FF2019F08BE991E002C086E992E0EF
:1050F0000E9420218DE991E00E9420218091AE0242
:10510000882319F084EA91E002C087EA91E00E94C6
:1051100020211092190710921807B0921B07A09235
:105120001A07F11003C08BE991E002C086E992E012
:105130000E9420218BEA91E00E9420219092190781
:105140008092180770921B0760921A0788EB91E013
:105150000E9420218DE097E00E94111A0E94C32135
:1051600080E80E9496218111E7C580E10E94962186
:105170008111E2C588E00E9496218823D1F0FF20AA
:1051800051F08091AE02882319F00E94EE1811C0F0
:105190000E94F3180EC00E948B1C66E970E085E047
:1051A00090E00E944D1C88E08093B7020E94E620A8
:1051B00010C584E00E949621882309F47CCF82E008
:1051C0008093B7026091AE0282E090E09A83898377
:1051D000CE0101960E94AD1CFCC48091B4028823CC
:1051E00009F499C0109211018CE280931001109281
:1051F0001901809318011092210180932001609180
:10520000B30270E09B012F5F3F4F45E0429FC0011A
:10521000439F900D112490932E0180932D01625F86
:105220007F4F660F660F70E088EE93E00E94F936BC
:10523000609314070DE210E010931907009318070C
:1052400010921B0710921A078BEC91E00E9420210C
:105250006091B30270E080E090E04AE00E94222179
:1052600010931907009318078AE090E090931B07AA
:1052700080931A0782ED91E00E9420216091B40290
:1052800070E080E090E04AE00E9422218FE090E010
:10529000909319078093180784E190E090931B077F
:1052A00080931A0789ED91E00E94202160912D01E1
:1052B00070912E0180E090E04AE00E94222188EE69
:1052C00091E00E9420218EE190E090931907809355
:1052D000180790931B0780931A078BEE91E00E94AA
:1052E00020218091B5029091B6020E9468218091A0
:1052F00010079091110763E070E00E94E53620915D
:10530000260130912701892B09F0D7C420343105BB
:105310000CF414C5D2C487E08093B7025AC48091BC
:105320000D01882319F0815080930D011092190707
:105330001092180710921B0710921A072091B802BA
:105340003091B9024091BA025091BB0216E0EAE0F6
:10535000CE2ED12CE12CF12C211531054105510522
:1053600041F0CA01B901A70196010E94A836115067
:10537000F3CF112331F08AE791E00E9420211150F0
:10538000F8CF6091B8027091B9028091BA02909101
:10539000BB024AE00E94222186E992E00E9420217D
:1053A00060912B0170912C0180E090E04AE00E9416
:1053B00022218FEF91E00E9420212091B5023091AF
:1053C000B602032E000C440B550B14E07AE0C72EF6
:1053D000D12CE12CF12C211531054105510541F06D
:1053E000CA01B901A70196010E94A8361150F3CF56
:1053F000112331F08AE791E00E9420211150F8CF6B
:105400008091B5029091B6020E94682184E092E0FA
:105410000E94202120912B0130912C0180912D019F
:1054200090912E012817390708F45EC0809132014F
:1054300081115AC080E59CE09093B2028093B10242
:105440009093B0028093AF020E94531581E0809345
:1054500004078093320186E794E0909334018093AF
:1054600033018AE08093BF020E94A121E7E7F4E0C4
:10547000249184E390E06C01C21AD1084091280184
:1054800050912901C416D5063CF4E4918E1B910974
:1054900090932901809328010FE12BE74FE252E11D
:1054A00062E170E082E090E00E940B228DE097E0E4
:1054B0000E94111A08EC10E04EE150E060E070E04C
:1054C000C8010E9400236AE070E082E090E00E9440
:1054D0004D1C0E5C1F4F083E23E0120769F70E9427
:1054E000A12188E780930D0120912B0130912C019F
:1054F00080912D0190912E012817390708F051C095
:1055000080913201882309F44CC01092C402109299
:10551000C3028EE097E09093B2028093B102909321
:10552000B0028093AF020E94531581E0809304077C
:10553000109232018CE49EE0909334018093330109
:105540001092BF020E94A12189E290E0909329016C
:105550008093280108E023E543E254E06CE170E029
:1055600086E190E00E940B228DE097E00E94111AE4
:1055700008EE13E04AE050E060E070E0C8010E94ED
:1055800000236AE070E082E090E00E944D1C02532C
:105590001109083C110571F70E94A12188E7809349
:1055A0000D0190910407809132019111D0C388239D
:1055B00009F4CDC380E59CE00C94AD320E94D72065
:1055C000E12CF12C0E94A12100EC20E84BE154E1F8
:1055D000B70180E090E00E940B228DE097E00E94EE
:1055E000111A6AE070E080E090E00E948B2021E0D8
:1055F000E21AF10837E9E3163FEFF30619F71092C4
:105600001D070E94141A8DE097E00E94111A64EFA2
:1056100071E080E090E00E948B2003E210E01093A4
:105620001907009318078AE090E090931B07809376
:105630001A0787E092E00E94202110931907009337
:10564000180782E190E090931B0780931A076091FE
:105650002B0170912C0180E090E04AE00E94222111
:1056600085E192E00E9420218091B30244E6849F6C
:10567000C00111240E94682120912B0130912C013E
:1056800044E6429FC001439F900D11244091B30214
:10569000489F9001499F300D11248091B80290914C
:1056A000B902A091BA02B091BB02820F931FA11D53
:1056B000B11D8093B8029093B902A093BA02B0933F
:1056C000BB020E94141A8DE097E00E94111A68EE46
:1056D00073E080E090E00E948B208091320188236B
:1056E00009F44BC010931907009318078AE190E062
:1056F00090931B0780931A078BE192E00E94202170
:10570000109319070093180782E290E090931B070B
:1057100080931A078091B30208EE13E0582F509F30
:10572000C001519F900D11240E9468212091B30265
:10573000209FC001219F900D1124092E000CAA0B5F
:10574000BB0B4091B8025091B9026091BA027091BE
:10575000BB02840F951FA61FB71F8093B8029093BA
:10576000B902A093BA02B093BB020E94141A8DE052
:1057700097E00E94111A0E94141A8DE097E00E948F
:10578000111A88E00E9496218111B2C784E00E941C
:1057900096218111ADC70E94C321F3CF6091E90624
:1057A0007091EA068091EB069091EC060E94921AA5
:1057B0004091F3065091F4066091F5067091F6065B
:1057C000882309F45CC04093FD065093FE06609365
:1057D000FF067093000760EF76E08AEF96E00E9484
:1057E00018378091F8069091F906909303078093FB
:1057F00002078091F706809301078091E906909156
:10580000EA06A091EB06B091EC068093F306909324
:10581000F406A093F506B093F60666EE76E080EF08
:1058200096E00E9418378091EE069091EF069093D3
:10583000F9068093F8068091ED068093F706809133
:10584000B8029091B902A091BA02B091BB028093C4
:10585000E9069093EA06A093EB06B093EC068091DC
:105860002B0190912C019093EF068093EE0680918E
:10587000B3028093ED06AA24A394B12C77C0CB0188
:10588000BA010E94921A882309F442C08091F3065B
:105890009091F406A091F506B091F6068093FD066E
:1058A0009093FE06A093FF06B093000760EF76E0AA
:1058B0008AEF96E00E9418378091F8069091F906D9
:1058C00090930307809302078091F7068093010766
:1058D0008091B8029091B902A091BA02B091BB0236
:1058E0008093F3069093F406A093F506B093F60622
:1058F00080912B0190912C019093F9068093F806EA
:105900008091B3028093F706E2E0AE2EB12C2EC058
:105910006091FD067091FE068091FF069091000750
:105920000E94921A882301F18091B8029091B902E5
:10593000A091BA02B091BB028093FD069093FE063F
:10594000A093FF06B093000780912B0190912C014A
:1059500090930307809302078091B302809301071D
:1059600073E0A72EB12C02C0A12CB12C0E94A12162
:1059700022E240E56EE170E080E090E00E94CF21FD
:1059800000E422E343E952E060E070E08EE490E05E
:105990000E940B2210921D071092190710921807EF
:1059A00010921B0710921A078AE292E00E942021AF
:1059B00002E010E0109319070093180780E290E0CE
:1059C00090931B0780931A0784E392E00E942021A2
:1059D0006091B30270E080E090E04AE00E942221F2
:1059E000109319070093180788E290E090931B0723
:1059F00080931A078CE392E00E9420216091B80204
:105A00007091B9028091BA029091BB024AE00E9463
:105A10002221109319070093180760E370E0709338
:105A20001B0760931A0784E492E00E942021609192
:105A30002B0170912C0180E090E04AE00E9422212D
:105A400088EE91E00E9420218DE097E00E94111ADB
:105A500064EFC62EDD24D394E12CF12CC701B601EE
:105A60000E949D14DC01CB0188539F4FAF4FBF4F65
:105A700048E350E060E070E00E9400236CE370E0D7
:105A800080E090E00E948B2072E3C71AD108E10801
:105A9000F10821F70E94C32188E00E94962181111C
:105AA00039C684E00E949621811134C6F3CF81E388
:105AB00090E0909319078093180781E090E090930D
:105AC0001B0780931A0780E892E00E94202182E061
:105AD00080931E0716EEE12E16E0F12E00E010E096
